{
  "contractName": "KryptoBird",
  "abi": [
    {
      "inputs": [],
      "stateMutability": "nonpayable",
      "type": "constructor"
    },
    {
      "anonymous": false,
      "inputs": [
        {
          "indexed": true,
          "internalType": "address",
          "name": "from",
          "type": "address"
        },
        {
          "indexed": true,
          "internalType": "address",
          "name": "to",
          "type": "address"
        },
        {
          "indexed": true,
          "internalType": "uint256",
          "name": "tokenId",
          "type": "uint256"
        }
      ],
      "name": "Transfer",
      "type": "event"
    },
    {
      "inputs": [
        {
          "internalType": "address",
          "name": "_owner",
          "type": "address"
        }
      ],
      "name": "balanceOf",
      "outputs": [
        {
          "internalType": "uint256",
          "name": "",
          "type": "uint256"
        }
      ],
      "stateMutability": "view",
      "type": "function",
      "constant": true
    },
    {
      "inputs": [
        {
          "internalType": "uint256",
          "name": "",
          "type": "uint256"
        }
      ],
      "name": "kryptoBirdz",
      "outputs": [
        {
          "internalType": "string",
          "name": "",
          "type": "string"
        }
      ],
      "stateMutability": "view",
      "type": "function",
      "constant": true
    },
    {
      "inputs": [],
      "name": "name",
      "outputs": [
        {
          "internalType": "string",
          "name": "",
          "type": "string"
        }
      ],
      "stateMutability": "view",
      "type": "function",
      "constant": true
    },
    {
      "inputs": [
        {
          "internalType": "uint256",
          "name": "_tokenId",
          "type": "uint256"
        }
      ],
      "name": "ownerOf",
      "outputs": [
        {
          "internalType": "address",
          "name": "",
          "type": "address"
        }
      ],
      "stateMutability": "view",
      "type": "function",
      "constant": true
    },
    {
      "inputs": [],
      "name": "symbol",
      "outputs": [
        {
          "internalType": "string",
          "name": "",
          "type": "string"
        }
      ],
      "stateMutability": "view",
      "type": "function",
      "constant": true
    },
    {
      "inputs": [
        {
          "internalType": "uint256",
          "name": "index",
          "type": "uint256"
        }
      ],
      "name": "tokenByIndex",
      "outputs": [
        {
          "internalType": "uint256",
          "name": "",
          "type": "uint256"
        }
      ],
      "stateMutability": "view",
      "type": "function",
      "constant": true
    },
    {
      "inputs": [
        {
          "internalType": "address",
          "name": "owner",
          "type": "address"
        },
        {
          "internalType": "uint256",
          "name": "index",
          "type": "uint256"
        }
      ],
      "name": "tokenOfOwnerByIndex",
      "outputs": [
        {
          "internalType": "uint256",
          "name": "",
          "type": "uint256"
        }
      ],
      "stateMutability": "view",
      "type": "function",
      "constant": true
    },
    {
      "inputs": [],
      "name": "totalSupply",
      "outputs": [
        {
          "internalType": "uint256",
          "name": "",
          "type": "uint256"
        }
      ],
      "stateMutability": "view",
      "type": "function",
      "constant": true
    },
    {
      "inputs": [
        {
          "internalType": "address",
          "name": "_from",
          "type": "address"
        },
        {
          "internalType": "address",
          "name": "_to",
          "type": "address"
        },
        {
          "internalType": "uint256",
          "name": "_tokenId",
          "type": "uint256"
        }
      ],
      "name": "transferFrom",
      "outputs": [],
      "stateMutability": "nonpayable",
      "type": "function"
    },
    {
      "inputs": [
        {
          "internalType": "string",
          "name": "_kryptoBird",
          "type": "string"
        }
      ],
      "name": "mint",
      "outputs": [],
      "stateMutability": "nonpayable",
      "type": "function"
    }
  ],
  "bytecode": "0x60806040523480156200001157600080fd5b506040518060400160405280600a81526020017f4b727970746f42697264000000000000000000000000000000000000000000008152506040518060400160405280600681526020017f4b424952445a00000000000000000000000000000000000000000000000000008152508181816000908162000091919062000328565b508060019081620000a3919062000328565b50505050506200040f565b600081519050919050565b7f4e487b7100000000000000000000000000000000000000000000000000000000600052604160045260246000fd5b7f4e487b7100000000000000000000000000000000000000000000000000000000600052602260045260246000fd5b600060028204905060018216806200013057607f821691505b602082108103620001465762000145620000e8565b5b50919050565b60008190508160005260206000209050919050565b60006020601f8301049050919050565b600082821b905092915050565b600060088302620001b07fffffffffffffffffffffffffffffffffffffffffffffffffffffffffffffffff8262000171565b620001bc868362000171565b95508019841693508086168417925050509392505050565b6000819050919050565b6000819050919050565b60006200020962000203620001fd84620001d4565b620001de565b620001d4565b9050919050565b6000819050919050565b6200022583620001e8565b6200023d620002348262000210565b8484546200017e565b825550505050565b600090565b6200025462000245565b620002618184846200021a565b505050565b5b8181101562000289576200027d6000826200024a565b60018101905062000267565b5050565b601f821115620002d857620002a2816200014c565b620002ad8462000161565b81016020851015620002bd578190505b620002d5620002cc8562000161565b83018262000266565b50505b505050565b600082821c905092915050565b6000620002fd60001984600802620002dd565b1980831691505092915050565b6000620003188383620002ea565b9150826002028217905092915050565b6200033382620000ae565b67ffffffffffffffff8111156200034f576200034e620000b9565b5b6200035b825462000117565b620003688282856200028d565b600060209050601f831160018114620003a057600084156200038b578287015190505b6200039785826200030a565b86555062000407565b601f198416620003b0866200014c565b60005b82811015620003da57848901518255600182019150602085019450602081019050620003b3565b86831015620003fa5784890151620003f6601f891682620002ea565b8355505b6001600288020188555050505b505050505050565b611955806200041f6000396000f3fe608060405234801561001057600080fd5b506004361061009e5760003560e01c80636352211e116100665780636352211e1461015b57806370a082311461018b57806393ab6e56146101bb57806395d89b41146101eb578063d85d3d27146102095761009e565b806306fdde03146100a357806318160ddd146100c157806323b872dd146100df5780632f745c59146100fb5780634f6ccce71461012b575b600080fd5b6100ab610225565b6040516100b89190610dcd565b60405180910390f35b6100c96102b7565b6040516100d69190610e08565b60405180910390f35b6100f960048036038101906100f49190610ec1565b6102c4565b005b61011560048036038101906101109190610f14565b6102d4565b6040516101229190610e08565b60405180910390f35b61014560048036038101906101409190610f54565b610384565b6040516101529190610e08565b60405180910390f35b61017560048036038101906101709190610f54565b6103f5565b6040516101829190610f90565b60405180910390f35b6101a560048036038101906101a09190610fab565b6104a6565b6040516101b29190610e08565b60405180910390f35b6101d560048036038101906101d09190610f54565b61055d565b6040516101e29190610dcd565b60405180910390f35b6101f3610609565b6040516102009190610dcd565b60405180910390f35b610223600480360381019061021e919061110d565b61069b565b005b60606000805461023490611185565b80601f016020809104026020016040519081016040528092919081815260200182805461026090611185565b80156102ad5780601f10610282576101008083540402835291602001916102ad565b820191906000526020600020905b81548152906001019060200180831161029057829003601f168201915b5050505050905090565b6000600580549050905090565b6102cf838383610797565b505050565b60006102df836104a6565b8210610320576040517f08c379a000000000000000000000000000000000000000000000000000000000815260040161031790611202565b60405180910390fd5b600760008473ffffffffffffffffffffffffffffffffffffffff1673ffffffffffffffffffffffffffffffffffffffff168152602001908152602001600020828154811061037157610370611222565b5b9060005260206000200154905092915050565b600061038e6102b7565b82106103cf576040517f08c379a00000000000000000000000000000000000000000000000000000000081526004016103c69061129d565b60405180910390fd5b600582815481106103e3576103e2611222565b5b90600052602060002001549050919050565b6000806002600084815260200190815260200160002060009054906101000a900473ffffffffffffffffffffffffffffffffffffffff169050600073ffffffffffffffffffffffffffffffffffffffff168173ffffffffffffffffffffffffffffffffffffffff160361049d576040517f08c379a000000000000000000000000000000000000000000000000000000000815260040161049490611309565b60405180910390fd5b80915050919050565b60008073ffffffffffffffffffffffffffffffffffffffff168273ffffffffffffffffffffffffffffffffffffffff1603610516576040517f08c379a000000000000000000000000000000000000000000000000000000000815260040161050d90611309565b60405180910390fd5b600360008373ffffffffffffffffffffffffffffffffffffffff1673ffffffffffffffffffffffffffffffffffffffff168152602001908152602001600020549050919050565b6009818154811061056d57600080fd5b90600052602060002001600091509050805461058890611185565b80601f01602080910402602001604051908101604052809291908181526020018280546105b490611185565b80156106015780601f106105d657610100808354040283529160200191610601565b820191906000526020600020905b8154815290600101906020018083116105e457829003601f168201915b505050505081565b60606001805461061890611185565b80601f016020809104026020016040519081016040528092919081815260200182805461064490611185565b80156106915780601f1061066657610100808354040283529160200191610691565b820191906000526020600020905b81548152906001019060200180831161067457829003601f168201915b5050505050905090565b600a816040516106ab9190611365565b908152602001604051809103902060009054906101000a900460ff1615610707576040517f08c379a00000000000000000000000000000000000000000000000000000000081526004016106fe906113ee565b60405180910390fd5b60098190806001815401808255809150506001900390600052602060002001600090919091909150908161073b91906115ba565b506000600160098054905061075091906116bb565b905061075c33826109dc565b6001600a8360405161076e9190611365565b908152602001604051809103902060006101000a81548160ff0219169083151502179055505050565b600073ffffffffffffffffffffffffffffffffffffffff168273ffffffffffffffffffffffffffffffffffffffff1603610806576040517f08c379a00000000000000000000000000000000000000000000000000000000081526004016107fd9061173b565b60405180910390fd5b8273ffffffffffffffffffffffffffffffffffffffff16610826826103f5565b73ffffffffffffffffffffffffffffffffffffffff161461087c576040517f08c379a0000000000000000000000000000000000000000000000000000000008152600401610873906117cd565b60405180910390fd5b6001600360008573ffffffffffffffffffffffffffffffffffffffff1673ffffffffffffffffffffffffffffffffffffffff16815260200190815260200160002060008282546108cc91906116bb565b925050819055506001600360008473ffffffffffffffffffffffffffffffffffffffff1673ffffffffffffffffffffffffffffffffffffffff168152602001908152602001600020600082825461092391906117ed565b92505081905550816002600083815260200190815260200160002060006101000a81548173ffffffffffffffffffffffffffffffffffffffff021916908373ffffffffffffffffffffffffffffffffffffffff160217905550808273ffffffffffffffffffffffffffffffffffffffff168473ffffffffffffffffffffffffffffffffffffffff167fddf252ad1be2c89b69c2b068fc378daa952ba7f163c4a11628f55a4df523b3ef60405160405180910390a4505050565b6109e682826109fd565b6109ef81610bbe565b6109f98282610c07565b5050565b600073ffffffffffffffffffffffffffffffffffffffff168273ffffffffffffffffffffffffffffffffffffffff1603610a6c576040517f08c379a0000000000000000000000000000000000000000000000000000000008152600401610a6390611893565b60405180910390fd5b610a7581610ccb565b15610ab5576040517f08c379a0000000000000000000000000000000000000000000000000000000008152600401610aac906118ff565b60405180910390fd5b816002600083815260200190815260200160002060006101000a81548173ffffffffffffffffffffffffffffffffffffffff021916908373ffffffffffffffffffffffffffffffffffffffff1602179055506001600360008473ffffffffffffffffffffffffffffffffffffffff1673ffffffffffffffffffffffffffffffffffffffff1681526020019081526020016000206000828254610b5791906117ed565b92505081905550808273ffffffffffffffffffffffffffffffffffffffff16600073ffffffffffffffffffffffffffffffffffffffff167fddf252ad1be2c89b69c2b068fc378daa952ba7f163c4a11628f55a4df523b3ef60405160405180910390a45050565b6005805490506006600083815260200190815260200160002081905550600581908060018154018082558091505060019003906000526020600020016000909190919091505550565b600760008373ffffffffffffffffffffffffffffffffffffffff1673ffffffffffffffffffffffffffffffffffffffff168152602001908152602001600020805490506008600083815260200190815260200160002081905550600760008373ffffffffffffffffffffffffffffffffffffffff1673ffffffffffffffffffffffffffffffffffffffff1681526020019081526020016000208190806001815401808255809150506001900390600052602060002001600090919091909150555050565b6000806002600084815260200190815260200160002060009054906101000a900473ffffffffffffffffffffffffffffffffffffffff169050600073ffffffffffffffffffffffffffffffffffffffff168173ffffffffffffffffffffffffffffffffffffffff161415915050919050565b600081519050919050565b600082825260208201905092915050565b60005b83811015610d77578082015181840152602081019050610d5c565b60008484015250505050565b6000601f19601f8301169050919050565b6000610d9f82610d3d565b610da98185610d48565b9350610db9818560208601610d59565b610dc281610d83565b840191505092915050565b60006020820190508181036000830152610de78184610d94565b905092915050565b6000819050919050565b610e0281610def565b82525050565b6000602082019050610e1d6000830184610df9565b92915050565b6000604051905090565b600080fd5b600080fd5b600073ffffffffffffffffffffffffffffffffffffffff82169050919050565b6000610e6282610e37565b9050919050565b610e7281610e57565b8114610e7d57600080fd5b50565b600081359050610e8f81610e69565b92915050565b610e9e81610def565b8114610ea957600080fd5b50565b600081359050610ebb81610e95565b92915050565b600080600060608486031215610eda57610ed9610e2d565b5b6000610ee886828701610e80565b9350506020610ef986828701610e80565b9250506040610f0a86828701610eac565b9150509250925092565b60008060408385031215610f2b57610f2a610e2d565b5b6000610f3985828601610e80565b9250506020610f4a85828601610eac565b9150509250929050565b600060208284031215610f6a57610f69610e2d565b5b6000610f7884828501610eac565b91505092915050565b610f8a81610e57565b82525050565b6000602082019050610fa56000830184610f81565b92915050565b600060208284031215610fc157610fc0610e2d565b5b6000610fcf84828501610e80565b91505092915050565b600080fd5b600080fd5b7f4e487b7100000000000000000000000000000000000000000000000000000000600052604160045260246000fd5b61101a82610d83565b810181811067ffffffffffffffff8211171561103957611038610fe2565b5b80604052505050565b600061104c610e23565b90506110588282611011565b919050565b600067ffffffffffffffff82111561107857611077610fe2565b5b61108182610d83565b9050602081019050919050565b82818337600083830152505050565b60006110b06110ab8461105d565b611042565b9050828152602081018484840111156110cc576110cb610fdd565b5b6110d784828561108e565b509392505050565b600082601f8301126110f4576110f3610fd8565b5b813561110484826020860161109d565b91505092915050565b60006020828403121561112357611122610e2d565b5b600082013567ffffffffffffffff81111561114157611140610e32565b5b61114d848285016110df565b91505092915050565b7f4e487b7100000000000000000000000000000000000000000000000000000000600052602260045260246000fd5b6000600282049050600182168061119d57607f821691505b6020821081036111b0576111af611156565b5b50919050565b7f6f776e657220696e646578206973206f7574206f662072616e67650000000000600082015250565b60006111ec601b83610d48565b91506111f7826111b6565b602082019050919050565b6000602082019050818103600083015261121b816111df565b9050919050565b7f4e487b7100000000000000000000000000000000000000000000000000000000600052603260045260246000fd5b7f676c6f62616c20696e646578206973206f7574206f662072616e676500000000600082015250565b6000611287601c83610d48565b915061129282611251565b602082019050919050565b600060208201905081810360008301526112b68161127a565b9050919050565b7f6f776e657220717565727920666f72206e6f6e2d6578697374656e7420000000600082015250565b60006112f3601d83610d48565b91506112fe826112bd565b602082019050919050565b60006020820190508181036000830152611322816112e6565b9050919050565b600081905092915050565b600061133f82610d3d565b6113498185611329565b9350611359818560208601610d59565b80840191505092915050565b60006113718284611334565b915081905092915050565b7f4572726f72202d206b727970746f626972642065786973747320616c7265616460008201527f7900000000000000000000000000000000000000000000000000000000000000602082015250565b60006113d8602183610d48565b91506113e38261137c565b604082019050919050565b60006020820190508181036000830152611407816113cb565b9050919050565b60008190508160005260206000209050919050565b60006020601f8301049050919050565b600082821b905092915050565b6000600883026114707fffffffffffffffffffffffffffffffffffffffffffffffffffffffffffffffff82611433565b61147a8683611433565b95508019841693508086168417925050509392505050565b6000819050919050565b60006114b76114b26114ad84610def565b611492565b610def565b9050919050565b6000819050919050565b6114d18361149c565b6114e56114dd826114be565b848454611440565b825550505050565b600090565b6114fa6114ed565b6115058184846114c8565b505050565b5b818110156115295761151e6000826114f2565b60018101905061150b565b5050565b601f82111561156e5761153f8161140e565b61154884611423565b81016020851015611557578190505b61156b61156385611423565b83018261150a565b50505b505050565b600082821c905092915050565b600061159160001984600802611573565b1980831691505092915050565b60006115aa8383611580565b9150826002028217905092915050565b6115c382610d3d565b67ffffffffffffffff8111156115dc576115db610fe2565b5b6115e68254611185565b6115f182828561152d565b600060209050601f8311600181146116245760008415611612578287015190505b61161c858261159e565b865550611684565b601f1984166116328661140e565b60005b8281101561165a57848901518255600182019150602085019450602081019050611635565b868310156116775784890151611673601f891682611580565b8355505b6001600288020188555050505b505050505050565b7f4e487b7100000000000000000000000000000000000000000000000000000000600052601160045260246000fd5b60006116c682610def565b91506116d183610def565b92508282039050818111156116e9576116e861168c565b5b92915050565b7f4572726f72202d207472616e7366657220746f207a65726f2061646472657373600082015250565b6000611725602083610d48565b9150611730826116ef565b602082019050919050565b6000602082019050818103600083015261175481611718565b9050919050565b7f547279696e6720746f207472616e73666572206120746f6b656e20746865206160008201527f64647265737320646f6573206e6f74206f776e00000000000000000000000000602082015250565b60006117b7603383610d48565b91506117c28261175b565b604082019050919050565b600060208201905081810360008301526117e6816117aa565b9050919050565b60006117f882610def565b915061180383610def565b925082820190508082111561181b5761181a61168c565b5b92915050565b7f4552433732313a206d696e74696e6720746f20746865207a65726f206164647260008201527f6573730000000000000000000000000000000000000000000000000000000000602082015250565b600061187d602383610d48565b915061188882611821565b604082019050919050565b600060208201905081810360008301526118ac81611870565b9050919050565b7f4552433732313a20746f6b656e20616c72656164792065786973747300000000600082015250565b60006118e9601c83610d48565b91506118f4826118b3565b602082019050919050565b60006020820190508181036000830152611918816118dc565b905091905056fea2646970667358221220b57503ad58669dec74f433ed6fb89d1271ac434b476fc05f5fb564db92b98a2764736f6c63430008130033",
  "immutableReferences": {},
  "source": "// SPDX-License-Identifier: MIT\npragma solidity ^0.8.0;\n\nimport './ERC721Connector.sol';\n\ncontract KryptoBird is ERC721Connector{\n\n    string [] public kryptoBirdz;\n\n    mapping(string => bool) _kryptoBirdzExists;\n\n    function mint(string memory _kryptoBird) public {\n\n        require(!_kryptoBirdzExists[_kryptoBird],'Error - kryptobird exists already');\n        kryptoBirdz.push(_kryptoBird);\n        uint _id = kryptoBirdz.length -1;\n\n        _mint(msg.sender, _id);\n\n        _kryptoBirdzExists[_kryptoBird] = true;\n    }\n\n    constructor () ERC721Connector('KryptoBird','KBIRDZ') {\n         \n    }\n\n} ",
  "sourcePath": "/Users/snp/web/nft-marketplace-starter-kit/src/contracts/KryptoBirdz.sol",
  "compiler": {
    "name": "solc",
    "version": "0.8.19+commit.7dd6d404.Emscripten.clang"
  },
  "schemaVersion": "3.4.13",
  "updatedAt": "2023-04-12T07:14:28.058Z",
  "networkType": "ethereum",
  "devdoc": {
    "kind": "dev",
    "methods": {},
    "version": 1
  },
  "userdoc": {
    "kind": "user",
    "methods": {},
    "version": 1
  }
}