{
  "contractName": "KryptoBird",
  "abi": [
    {
      "inputs": [],
      "stateMutability": "nonpayable",
      "type": "constructor"
    },
    {
      "anonymous": false,
      "inputs": [
        {
          "indexed": true,
          "internalType": "address",
          "name": "from",
          "type": "address"
        },
        {
          "indexed": true,
          "internalType": "address",
          "name": "to",
          "type": "address"
        },
        {
          "indexed": true,
          "internalType": "uint256",
          "name": "tokenId",
          "type": "uint256"
        }
      ],
      "name": "Transfer",
      "type": "event"
    },
    {
      "inputs": [
        {
          "internalType": "address",
          "name": "_owner",
          "type": "address"
        }
      ],
      "name": "balanceOf",
      "outputs": [
        {
          "internalType": "uint256",
          "name": "",
          "type": "uint256"
        }
      ],
      "stateMutability": "view",
      "type": "function",
      "constant": true
    },
    {
      "inputs": [
        {
          "internalType": "uint256",
          "name": "",
          "type": "uint256"
        }
      ],
      "name": "kryptoBirdz",
      "outputs": [
        {
          "internalType": "string",
          "name": "",
          "type": "string"
        }
      ],
      "stateMutability": "view",
      "type": "function",
      "constant": true
    },
    {
      "inputs": [],
      "name": "name",
      "outputs": [
        {
          "internalType": "string",
          "name": "",
          "type": "string"
        }
      ],
      "stateMutability": "view",
      "type": "function",
      "constant": true
    },
    {
      "inputs": [
        {
          "internalType": "uint256",
          "name": "_tokenId",
          "type": "uint256"
        }
      ],
      "name": "onwerOf",
      "outputs": [
        {
          "internalType": "address",
          "name": "",
          "type": "address"
        }
      ],
      "stateMutability": "view",
      "type": "function",
      "constant": true
    },
    {
      "inputs": [],
      "name": "symbol",
      "outputs": [
        {
          "internalType": "string",
          "name": "",
          "type": "string"
        }
      ],
      "stateMutability": "view",
      "type": "function",
      "constant": true
    },
    {
      "inputs": [
        {
          "internalType": "string",
          "name": "_kryptoBird",
          "type": "string"
        }
      ],
      "name": "mint",
      "outputs": [],
      "stateMutability": "nonpayable",
      "type": "function"
    }
  ],
  "bytecode": "0x60806040523480156200001157600080fd5b506040518060400160405280600a81526020017f4b727970746f42697264000000000000000000000000000000000000000000008152506040518060400160405280600681526020017f4b424952445a00000000000000000000000000000000000000000000000000008152508181816000908162000091919062000328565b508060019081620000a3919062000328565b50505050506200040f565b600081519050919050565b7f4e487b7100000000000000000000000000000000000000000000000000000000600052604160045260246000fd5b7f4e487b7100000000000000000000000000000000000000000000000000000000600052602260045260246000fd5b600060028204905060018216806200013057607f821691505b602082108103620001465762000145620000e8565b5b50919050565b60008190508160005260206000209050919050565b60006020601f8301049050919050565b600082821b905092915050565b600060088302620001b07fffffffffffffffffffffffffffffffffffffffffffffffffffffffffffffffff8262000171565b620001bc868362000171565b95508019841693508086168417925050509392505050565b6000819050919050565b6000819050919050565b60006200020962000203620001fd84620001d4565b620001de565b620001d4565b9050919050565b6000819050919050565b6200022583620001e8565b6200023d620002348262000210565b8484546200017e565b825550505050565b600090565b6200025462000245565b620002618184846200021a565b505050565b5b8181101562000289576200027d6000826200024a565b60018101905062000267565b5050565b601f821115620002d857620002a2816200014c565b620002ad8462000161565b81016020851015620002bd578190505b620002d5620002cc8562000161565b83018262000266565b50505b505050565b600082821c905092915050565b6000620002fd60001984600802620002dd565b1980831691505092915050565b6000620003188383620002ea565b9150826002028217905092915050565b6200033382620000ae565b67ffffffffffffffff8111156200034f576200034e620000b9565b5b6200035b825462000117565b620003688282856200028d565b600060209050601f831160018114620003a057600084156200038b578287015190505b6200039785826200030a565b86555062000407565b601f198416620003b0866200014c565b60005b82811015620003da57848901518255600182019150602085019450602081019050620003b3565b86831015620003fa5784890151620003f6601f891682620002ea565b8355505b6001600288020188555050505b505050505050565b611136806200041f6000396000f3fe608060405234801561001057600080fd5b50600436106100625760003560e01c806306fdde031461006757806370a082311461008557806393ab6e56146100b557806395d89b41146100e5578063d85d3d2714610103578063f9297d941461011f575b600080fd5b61006f61014f565b60405161007c9190610846565b60405180910390f35b61009f600480360381019061009a91906108da565b6101e1565b6040516100ac9190610920565b60405180910390f35b6100cf60048036038101906100ca9190610967565b610298565b6040516100dc9190610846565b60405180910390f35b6100ed610344565b6040516100fa9190610846565b60405180910390f35b61011d60048036038101906101189190610ac9565b6103d6565b005b61013960048036038101906101349190610967565b6104d2565b6040516101469190610b21565b60405180910390f35b60606000805461015e90610b6b565b80601f016020809104026020016040519081016040528092919081815260200182805461018a90610b6b565b80156101d75780601f106101ac576101008083540402835291602001916101d7565b820191906000526020600020905b8154815290600101906020018083116101ba57829003601f168201915b5050505050905090565b60008073ffffffffffffffffffffffffffffffffffffffff168273ffffffffffffffffffffffffffffffffffffffff1603610251576040517f08c379a000000000000000000000000000000000000000000000000000000000815260040161024890610be8565b60405180910390fd5b600360008373ffffffffffffffffffffffffffffffffffffffff1673ffffffffffffffffffffffffffffffffffffffff168152602001908152602001600020549050919050565b600481815481106102a857600080fd5b9060005260206000200160009150905080546102c390610b6b565b80601f01602080910402602001604051908101604052809291908181526020018280546102ef90610b6b565b801561033c5780601f106103115761010080835404028352916020019161033c565b820191906000526020600020905b81548152906001019060200180831161031f57829003601f168201915b505050505081565b60606001805461035390610b6b565b80601f016020809104026020016040519081016040528092919081815260200182805461037f90610b6b565b80156103cc5780601f106103a1576101008083540402835291602001916103cc565b820191906000526020600020905b8154815290600101906020018083116103af57829003601f168201915b5050505050905090565b6005816040516103e69190610c44565b908152602001604051809103902060009054906101000a900460ff1615610442576040517f08c379a000000000000000000000000000000000000000000000000000000000815260040161043990610ccd565b60405180910390fd5b6004819080600181540180825580915050600190039060005260206000200160009091909190915090816104769190610e99565b506000600160048054905061048b9190610f9a565b90506104973382610583565b60016005836040516104a99190610c44565b908152602001604051809103902060006101000a81548160ff0219169083151502179055505050565b6000806002600084815260200190815260200160002060009054906101000a900473ffffffffffffffffffffffffffffffffffffffff169050600073ffffffffffffffffffffffffffffffffffffffff168173ffffffffffffffffffffffffffffffffffffffff160361057a576040517f08c379a000000000000000000000000000000000000000000000000000000000815260040161057190610be8565b60405180910390fd5b80915050919050565b600073ffffffffffffffffffffffffffffffffffffffff168273ffffffffffffffffffffffffffffffffffffffff16036105f2576040517f08c379a00000000000000000000000000000000000000000000000000000000081526004016105e990611040565b60405180910390fd5b6105fb81610744565b1561063b576040517f08c379a0000000000000000000000000000000000000000000000000000000008152600401610632906110ac565b60405180910390fd5b816002600083815260200190815260200160002060006101000a81548173ffffffffffffffffffffffffffffffffffffffff021916908373ffffffffffffffffffffffffffffffffffffffff1602179055506001600360008473ffffffffffffffffffffffffffffffffffffffff1673ffffffffffffffffffffffffffffffffffffffff16815260200190815260200160002060008282546106dd91906110cc565b92505081905550808273ffffffffffffffffffffffffffffffffffffffff16600073ffffffffffffffffffffffffffffffffffffffff167fddf252ad1be2c89b69c2b068fc378daa952ba7f163c4a11628f55a4df523b3ef60405160405180910390a45050565b6000806002600084815260200190815260200160002060009054906101000a900473ffffffffffffffffffffffffffffffffffffffff169050600073ffffffffffffffffffffffffffffffffffffffff168173ffffffffffffffffffffffffffffffffffffffff161415915050919050565b600081519050919050565b600082825260208201905092915050565b60005b838110156107f05780820151818401526020810190506107d5565b60008484015250505050565b6000601f19601f8301169050919050565b6000610818826107b6565b61082281856107c1565b93506108328185602086016107d2565b61083b816107fc565b840191505092915050565b60006020820190508181036000830152610860818461080d565b905092915050565b6000604051905090565b600080fd5b600080fd5b600073ffffffffffffffffffffffffffffffffffffffff82169050919050565b60006108a78261087c565b9050919050565b6108b78161089c565b81146108c257600080fd5b50565b6000813590506108d4816108ae565b92915050565b6000602082840312156108f0576108ef610872565b5b60006108fe848285016108c5565b91505092915050565b6000819050919050565b61091a81610907565b82525050565b60006020820190506109356000830184610911565b92915050565b61094481610907565b811461094f57600080fd5b50565b6000813590506109618161093b565b92915050565b60006020828403121561097d5761097c610872565b5b600061098b84828501610952565b91505092915050565b600080fd5b600080fd5b7f4e487b7100000000000000000000000000000000000000000000000000000000600052604160045260246000fd5b6109d6826107fc565b810181811067ffffffffffffffff821117156109f5576109f461099e565b5b80604052505050565b6000610a08610868565b9050610a1482826109cd565b919050565b600067ffffffffffffffff821115610a3457610a3361099e565b5b610a3d826107fc565b9050602081019050919050565b82818337600083830152505050565b6000610a6c610a6784610a19565b6109fe565b905082815260208101848484011115610a8857610a87610999565b5b610a93848285610a4a565b509392505050565b600082601f830112610ab057610aaf610994565b5b8135610ac0848260208601610a59565b91505092915050565b600060208284031215610adf57610ade610872565b5b600082013567ffffffffffffffff811115610afd57610afc610877565b5b610b0984828501610a9b565b91505092915050565b610b1b8161089c565b82525050565b6000602082019050610b366000830184610b12565b92915050565b7f4e487b7100000000000000000000000000000000000000000000000000000000600052602260045260246000fd5b60006002820490506001821680610b8357607f821691505b602082108103610b9657610b95610b3c565b5b50919050565b7f6f776e657220717565727920666f72206e6f6e2d6578697374656e7420000000600082015250565b6000610bd2601d836107c1565b9150610bdd82610b9c565b602082019050919050565b60006020820190508181036000830152610c0181610bc5565b9050919050565b600081905092915050565b6000610c1e826107b6565b610c288185610c08565b9350610c388185602086016107d2565b80840191505092915050565b6000610c508284610c13565b915081905092915050565b7f4572726f72202d206b727970746f626972642065786973747320616c7265616460008201527f7900000000000000000000000000000000000000000000000000000000000000602082015250565b6000610cb76021836107c1565b9150610cc282610c5b565b604082019050919050565b60006020820190508181036000830152610ce681610caa565b9050919050565b60008190508160005260206000209050919050565b60006020601f8301049050919050565b600082821b905092915050565b600060088302610d4f7fffffffffffffffffffffffffffffffffffffffffffffffffffffffffffffffff82610d12565b610d598683610d12565b95508019841693508086168417925050509392505050565b6000819050919050565b6000610d96610d91610d8c84610907565b610d71565b610907565b9050919050565b6000819050919050565b610db083610d7b565b610dc4610dbc82610d9d565b848454610d1f565b825550505050565b600090565b610dd9610dcc565b610de4818484610da7565b505050565b5b81811015610e0857610dfd600082610dd1565b600181019050610dea565b5050565b601f821115610e4d57610e1e81610ced565b610e2784610d02565b81016020851015610e36578190505b610e4a610e4285610d02565b830182610de9565b50505b505050565b600082821c905092915050565b6000610e7060001984600802610e52565b1980831691505092915050565b6000610e898383610e5f565b9150826002028217905092915050565b610ea2826107b6565b67ffffffffffffffff811115610ebb57610eba61099e565b5b610ec58254610b6b565b610ed0828285610e0c565b600060209050601f831160018114610f035760008415610ef1578287015190505b610efb8582610e7d565b865550610f63565b601f198416610f1186610ced565b60005b82811015610f3957848901518255600182019150602085019450602081019050610f14565b86831015610f565784890151610f52601f891682610e5f565b8355505b6001600288020188555050505b505050505050565b7f4e487b7100000000000000000000000000000000000000000000000000000000600052601160045260246000fd5b6000610fa582610907565b9150610fb083610907565b9250828203905081811115610fc857610fc7610f6b565b5b92915050565b7f4552433732313a206d696e74696e6720746f20746865207a65726f206164647260008201527f6573730000000000000000000000000000000000000000000000000000000000602082015250565b600061102a6023836107c1565b915061103582610fce565b604082019050919050565b600060208201905081810360008301526110598161101d565b9050919050565b7f4552433732313a20746f6b656e20616c72656164792065786973747300000000600082015250565b6000611096601c836107c1565b91506110a182611060565b602082019050919050565b600060208201905081810360008301526110c581611089565b9050919050565b60006110d782610907565b91506110e283610907565b92508282019050808211156110fa576110f9610f6b565b5b9291505056fea2646970667358221220ed990b73b28573a381c6e4872fab6b2ecc4d8b1cfea6e26525e40a308d5c5ca264736f6c63430008130033",
  "immutableReferences": {},
  "source": "// SPDX-License-Identifier: MIT\npragma solidity ^0.8.0;\n\nimport './ERC721Connector.sol';\n\ncontract KryptoBird is ERC721Connector{\n\n    string [] public kryptoBirdz;\n\n    mapping(string => bool) _kryptoBirdzExists;\n\n    function mint(string memory _kryptoBird) public {\n\n        require(!_kryptoBirdzExists[_kryptoBird],'Error - kryptobird exists already');\n        kryptoBirdz.push(_kryptoBird);\n        uint _id = kryptoBirdz.length -1;\n\n        _mint(msg.sender, _id);\n\n        _kryptoBirdzExists[_kryptoBird] = true;\n    }\n\n    constructor () ERC721Connector('KryptoBird','KBIRDZ') {\n         \n    }\n\n} ",
  "sourcePath": "/Users/snp/web/nft-marketplace-starter-kit/src/contracts/KryptoBirdz.sol",
  "compiler": {
    "name": "solc",
    "version": "0.8.19+commit.7dd6d404.Emscripten.clang"
  },
  "schemaVersion": "3.4.13",
  "updatedAt": "2023-04-12T00:55:24.045Z",
  "networkType": "ethereum",
  "devdoc": {
    "kind": "dev",
    "methods": {},
    "version": 1
  },
  "userdoc": {
    "kind": "user",
    "methods": {},
    "version": 1
  }
}