{
  "contractName": "KryptoBird",
  "abi": [
    {
      "inputs": [],
      "stateMutability": "nonpayable",
      "type": "constructor"
    },
    {
      "anonymous": false,
      "inputs": [
        {
          "indexed": true,
          "internalType": "address",
          "name": "_owner",
          "type": "address"
        },
        {
          "indexed": true,
          "internalType": "address",
          "name": "_approved",
          "type": "address"
        },
        {
          "indexed": true,
          "internalType": "uint256",
          "name": "_tokenId",
          "type": "uint256"
        }
      ],
      "name": "Approval",
      "type": "event"
    },
    {
      "anonymous": false,
      "inputs": [
        {
          "indexed": true,
          "internalType": "address",
          "name": "_from",
          "type": "address"
        },
        {
          "indexed": true,
          "internalType": "address",
          "name": "_to",
          "type": "address"
        },
        {
          "indexed": true,
          "internalType": "uint256",
          "name": "_tokenId",
          "type": "uint256"
        }
      ],
      "name": "Transfer",
      "type": "event"
    },
    {
      "inputs": [
        {
          "internalType": "address",
          "name": "_owner",
          "type": "address"
        }
      ],
      "name": "balanceOf",
      "outputs": [
        {
          "internalType": "uint256",
          "name": "",
          "type": "uint256"
        }
      ],
      "stateMutability": "view",
      "type": "function"
    },
    {
      "inputs": [
        {
          "internalType": "uint256",
          "name": "",
          "type": "uint256"
        }
      ],
      "name": "kryptoBirdz",
      "outputs": [
        {
          "internalType": "string",
          "name": "",
          "type": "string"
        }
      ],
      "stateMutability": "view",
      "type": "function"
    },
    {
      "inputs": [],
      "name": "name",
      "outputs": [
        {
          "internalType": "string",
          "name": "",
          "type": "string"
        }
      ],
      "stateMutability": "view",
      "type": "function"
    },
    {
      "inputs": [
        {
          "internalType": "uint256",
          "name": "_tokenId",
          "type": "uint256"
        }
      ],
      "name": "ownerOf",
      "outputs": [
        {
          "internalType": "address",
          "name": "",
          "type": "address"
        }
      ],
      "stateMutability": "view",
      "type": "function"
    },
    {
      "inputs": [
        {
          "internalType": "bytes4",
          "name": "interfaceID",
          "type": "bytes4"
        }
      ],
      "name": "supportsInterface",
      "outputs": [
        {
          "internalType": "bool",
          "name": "",
          "type": "bool"
        }
      ],
      "stateMutability": "view",
      "type": "function"
    },
    {
      "inputs": [],
      "name": "symbol",
      "outputs": [
        {
          "internalType": "string",
          "name": "",
          "type": "string"
        }
      ],
      "stateMutability": "view",
      "type": "function"
    },
    {
      "inputs": [
        {
          "internalType": "uint256",
          "name": "index",
          "type": "uint256"
        }
      ],
      "name": "tokenByIndex",
      "outputs": [
        {
          "internalType": "uint256",
          "name": "",
          "type": "uint256"
        }
      ],
      "stateMutability": "view",
      "type": "function"
    },
    {
      "inputs": [
        {
          "internalType": "address",
          "name": "owner",
          "type": "address"
        },
        {
          "internalType": "uint256",
          "name": "index",
          "type": "uint256"
        }
      ],
      "name": "tokenOfOwnerByIndex",
      "outputs": [
        {
          "internalType": "uint256",
          "name": "",
          "type": "uint256"
        }
      ],
      "stateMutability": "view",
      "type": "function"
    },
    {
      "inputs": [],
      "name": "totalSupply",
      "outputs": [
        {
          "internalType": "uint256",
          "name": "",
          "type": "uint256"
        }
      ],
      "stateMutability": "view",
      "type": "function"
    },
    {
      "inputs": [
        {
          "internalType": "address",
          "name": "_from",
          "type": "address"
        },
        {
          "internalType": "address",
          "name": "_to",
          "type": "address"
        },
        {
          "internalType": "uint256",
          "name": "_tokenId",
          "type": "uint256"
        }
      ],
      "name": "transferFrom",
      "outputs": [],
      "stateMutability": "nonpayable",
      "type": "function"
    },
    {
      "inputs": [
        {
          "internalType": "string",
          "name": "_kryptoBird",
          "type": "string"
        }
      ],
      "name": "mint",
      "outputs": [],
      "stateMutability": "nonpayable",
      "type": "function"
    }
  ],
  "bytecode": "0x60806040523480156200001157600080fd5b506040518060400160405280600a81526020017f4b727970746f42697264000000000000000000000000000000000000000000008152506040518060400160405280600681526020017f4b424952445a00000000000000000000000000000000000000000000000000008152508181816000908162000091919062000431565b508060019081620000a3919062000431565b505050620000d77f01ffc9a7a5cef8baa21ed3c5c0d7e23accb804b619e9333b597f47a0d84076e2620000df60201b60201c565b50506200059b565b63ffffffff60e01b817bffffffffffffffffffffffffffffffffffffffffffffffffffffffff1916036200014a576040517f08c379a0000000000000000000000000000000000000000000000000000000008152600401620001419062000579565b60405180910390fd5b600160026000837bffffffffffffffffffffffffffffffffffffffffffffffffffffffff19167bffffffffffffffffffffffffffffffffffffffffffffffffffffffff1916815260200190815260200160002060006101000a81548160ff02191690831515021790555050565b600081519050919050565b7f4e487b7100000000000000000000000000000000000000000000000000000000600052604160045260246000fd5b7f4e487b7100000000000000000000000000000000000000000000000000000000600052602260045260246000fd5b600060028204905060018216806200023957607f821691505b6020821081036200024f576200024e620001f1565b5b50919050565b60008190508160005260206000209050919050565b60006020601f8301049050919050565b600082821b905092915050565b600060088302620002b97fffffffffffffffffffffffffffffffffffffffffffffffffffffffffffffffff826200027a565b620002c586836200027a565b95508019841693508086168417925050509392505050565b6000819050919050565b6000819050919050565b6000620003126200030c6200030684620002dd565b620002e7565b620002dd565b9050919050565b6000819050919050565b6200032e83620002f1565b620003466200033d8262000319565b84845462000287565b825550505050565b600090565b6200035d6200034e565b6200036a81848462000323565b505050565b5b8181101562000392576200038660008262000353565b60018101905062000370565b5050565b601f821115620003e157620003ab8162000255565b620003b6846200026a565b81016020851015620003c6578190505b620003de620003d5856200026a565b8301826200036f565b50505b505050565b600082821c905092915050565b60006200040660001984600802620003e6565b1980831691505092915050565b6000620004218383620003f3565b9150826002028217905092915050565b6200043c82620001b7565b67ffffffffffffffff811115620004585762000457620001c2565b5b62000464825462000220565b6200047182828562000396565b600060209050601f831160018114620004a9576000841562000494578287015190505b620004a0858262000413565b86555062000510565b601f198416620004b98662000255565b60005b82811015620004e357848901518255600182019150602085019450602081019050620004bc565b86831015620005035784890151620004ff601f891682620003f3565b8355505b6001600288020188555050505b505050505050565b600082825260208201905092915050565b7f496e76616c696420696e74657266616365207265717565737400000000000000600082015250565b60006200056160198362000518565b91506200056e8262000529565b602082019050919050565b60006020820190508181036000830152620005948162000552565b9050919050565b611ab380620005ab6000396000f3fe608060405234801561001057600080fd5b50600436106100a95760003560e01c80634f6ccce7116100715780634f6ccce7146101665780636352211e1461019657806370a08231146101c657806393ab6e56146101f657806395d89b4114610226578063d85d3d2714610244576100a9565b806301ffc9a7146100ae57806306fdde03146100de57806318160ddd146100fc57806323b872dd1461011a5780632f745c5914610136575b600080fd5b6100c860048036038101906100c39190610e4c565b610260565b6040516100d59190610e94565b60405180910390f35b6100e66102c8565b6040516100f39190610f3f565b60405180910390f35b61010461035a565b6040516101119190610f7a565b60405180910390f35b610134600480360381019061012f919061101f565b610367565b005b610150600480360381019061014b9190611072565b610377565b60405161015d9190610f7a565b60405180910390f35b610180600480360381019061017b91906110b2565b610427565b60405161018d9190610f7a565b60405180910390f35b6101b060048036038101906101ab91906110b2565b610498565b6040516101bd91906110ee565b60405180910390f35b6101e060048036038101906101db9190611109565b610549565b6040516101ed9190610f7a565b60405180910390f35b610210600480360381019061020b91906110b2565b610600565b60405161021d9190610f3f565b60405180910390f35b61022e6106ac565b60405161023b9190610f3f565b60405180910390f35b61025e6004803603810190610259919061126b565b61073e565b005b600060026000837bffffffffffffffffffffffffffffffffffffffffffffffffffffffff19167bffffffffffffffffffffffffffffffffffffffffffffffffffffffff1916815260200190815260200160002060009054906101000a900460ff169050919050565b6060600080546102d7906112e3565b80601f0160208091040260200160405190810160405280929190818152602001828054610303906112e3565b80156103505780601f1061032557610100808354040283529160200191610350565b820191906000526020600020905b81548152906001019060200180831161033357829003601f168201915b5050505050905090565b6000600680549050905090565b61037283838361083a565b505050565b600061038283610549565b82106103c3576040517f08c379a00000000000000000000000000000000000000000000000000000000081526004016103ba90611360565b60405180910390fd5b600860008473ffffffffffffffffffffffffffffffffffffffff1673ffffffffffffffffffffffffffffffffffffffff168152602001908152602001600020828154811061041457610413611380565b5b9060005260206000200154905092915050565b600061043161035a565b8210610472576040517f08c379a0000000000000000000000000000000000000000000000000000000008152600401610469906113fb565b60405180910390fd5b6006828154811061048657610485611380565b5b90600052602060002001549050919050565b6000806003600084815260200190815260200160002060009054906101000a900473ffffffffffffffffffffffffffffffffffffffff169050600073ffffffffffffffffffffffffffffffffffffffff168173ffffffffffffffffffffffffffffffffffffffff1603610540576040517f08c379a000000000000000000000000000000000000000000000000000000000815260040161053790611467565b60405180910390fd5b80915050919050565b60008073ffffffffffffffffffffffffffffffffffffffff168273ffffffffffffffffffffffffffffffffffffffff16036105b9576040517f08c379a00000000000000000000000000000000000000000000000000000000081526004016105b090611467565b60405180910390fd5b600460008373ffffffffffffffffffffffffffffffffffffffff1673ffffffffffffffffffffffffffffffffffffffff168152602001908152602001600020549050919050565b600a818154811061061057600080fd5b90600052602060002001600091509050805461062b906112e3565b80601f0160208091040260200160405190810160405280929190818152602001828054610657906112e3565b80156106a45780601f10610679576101008083540402835291602001916106a4565b820191906000526020600020905b81548152906001019060200180831161068757829003601f168201915b505050505081565b6060600180546106bb906112e3565b80601f01602080910402602001604051908101604052809291908181526020018280546106e7906112e3565b80156107345780601f1061070957610100808354040283529160200191610734565b820191906000526020600020905b81548152906001019060200180831161071757829003601f168201915b5050505050905090565b600b8160405161074e91906114c3565b908152602001604051809103902060009054906101000a900460ff16156107aa576040517f08c379a00000000000000000000000000000000000000000000000000000000081526004016107a19061154c565b60405180910390fd5b600a819080600181540180825580915050600190039060005260206000200160009091909190915090816107de9190611718565b5060006001600a805490506107f39190611819565b90506107ff3382610a7f565b6001600b8360405161081191906114c3565b908152602001604051809103902060006101000a81548160ff0219169083151502179055505050565b600073ffffffffffffffffffffffffffffffffffffffff168273ffffffffffffffffffffffffffffffffffffffff16036108a9576040517f08c379a00000000000000000000000000000000000000000000000000000000081526004016108a090611899565b60405180910390fd5b8273ffffffffffffffffffffffffffffffffffffffff166108c982610498565b73ffffffffffffffffffffffffffffffffffffffff161461091f576040517f08c379a00000000000000000000000000000000000000000000000000000000081526004016109169061192b565b60405180910390fd5b6001600460008573ffffffffffffffffffffffffffffffffffffffff1673ffffffffffffffffffffffffffffffffffffffff168152602001908152602001600020600082825461096f9190611819565b925050819055506001600460008473ffffffffffffffffffffffffffffffffffffffff1673ffffffffffffffffffffffffffffffffffffffff16815260200190815260200160002060008282546109c6919061194b565b92505081905550816003600083815260200190815260200160002060006101000a81548173ffffffffffffffffffffffffffffffffffffffff021916908373ffffffffffffffffffffffffffffffffffffffff160217905550808273ffffffffffffffffffffffffffffffffffffffff168473ffffffffffffffffffffffffffffffffffffffff167fddf252ad1be2c89b69c2b068fc378daa952ba7f163c4a11628f55a4df523b3ef60405160405180910390a4505050565b610a898282610aa0565b610a9281610c61565b610a9c8282610caa565b5050565b600073ffffffffffffffffffffffffffffffffffffffff168273ffffffffffffffffffffffffffffffffffffffff1603610b0f576040517f08c379a0000000000000000000000000000000000000000000000000000000008152600401610b06906119f1565b60405180910390fd5b610b1881610d6e565b15610b58576040517f08c379a0000000000000000000000000000000000000000000000000000000008152600401610b4f90611a5d565b60405180910390fd5b816003600083815260200190815260200160002060006101000a81548173ffffffffffffffffffffffffffffffffffffffff021916908373ffffffffffffffffffffffffffffffffffffffff1602179055506001600460008473ffffffffffffffffffffffffffffffffffffffff1673ffffffffffffffffffffffffffffffffffffffff1681526020019081526020016000206000828254610bfa919061194b565b92505081905550808273ffffffffffffffffffffffffffffffffffffffff16600073ffffffffffffffffffffffffffffffffffffffff167fddf252ad1be2c89b69c2b068fc378daa952ba7f163c4a11628f55a4df523b3ef60405160405180910390a45050565b6006805490506007600083815260200190815260200160002081905550600681908060018154018082558091505060019003906000526020600020016000909190919091505550565b600860008373ffffffffffffffffffffffffffffffffffffffff1673ffffffffffffffffffffffffffffffffffffffff168152602001908152602001600020805490506009600083815260200190815260200160002081905550600860008373ffffffffffffffffffffffffffffffffffffffff1673ffffffffffffffffffffffffffffffffffffffff1681526020019081526020016000208190806001815401808255809150506001900390600052602060002001600090919091909150555050565b6000806003600084815260200190815260200160002060009054906101000a900473ffffffffffffffffffffffffffffffffffffffff169050600073ffffffffffffffffffffffffffffffffffffffff168173ffffffffffffffffffffffffffffffffffffffff161415915050919050565b6000604051905090565b600080fd5b600080fd5b60007fffffffff0000000000000000000000000000000000000000000000000000000082169050919050565b610e2981610df4565b8114610e3457600080fd5b50565b600081359050610e4681610e20565b92915050565b600060208284031215610e6257610e61610dea565b5b6000610e7084828501610e37565b91505092915050565b60008115159050919050565b610e8e81610e79565b82525050565b6000602082019050610ea96000830184610e85565b92915050565b600081519050919050565b600082825260208201905092915050565b60005b83811015610ee9578082015181840152602081019050610ece565b60008484015250505050565b6000601f19601f8301169050919050565b6000610f1182610eaf565b610f1b8185610eba565b9350610f2b818560208601610ecb565b610f3481610ef5565b840191505092915050565b60006020820190508181036000830152610f598184610f06565b905092915050565b6000819050919050565b610f7481610f61565b82525050565b6000602082019050610f8f6000830184610f6b565b92915050565b600073ffffffffffffffffffffffffffffffffffffffff82169050919050565b6000610fc082610f95565b9050919050565b610fd081610fb5565b8114610fdb57600080fd5b50565b600081359050610fed81610fc7565b92915050565b610ffc81610f61565b811461100757600080fd5b50565b60008135905061101981610ff3565b92915050565b60008060006060848603121561103857611037610dea565b5b600061104686828701610fde565b935050602061105786828701610fde565b92505060406110688682870161100a565b9150509250925092565b6000806040838503121561108957611088610dea565b5b600061109785828601610fde565b92505060206110a88582860161100a565b9150509250929050565b6000602082840312156110c8576110c7610dea565b5b60006110d68482850161100a565b91505092915050565b6110e881610fb5565b82525050565b600060208201905061110360008301846110df565b92915050565b60006020828403121561111f5761111e610dea565b5b600061112d84828501610fde565b91505092915050565b600080fd5b600080fd5b7f4e487b7100000000000000000000000000000000000000000000000000000000600052604160045260246000fd5b61117882610ef5565b810181811067ffffffffffffffff8211171561119757611196611140565b5b80604052505050565b60006111aa610de0565b90506111b6828261116f565b919050565b600067ffffffffffffffff8211156111d6576111d5611140565b5b6111df82610ef5565b9050602081019050919050565b82818337600083830152505050565b600061120e611209846111bb565b6111a0565b90508281526020810184848401111561122a5761122961113b565b5b6112358482856111ec565b509392505050565b600082601f83011261125257611251611136565b5b81356112628482602086016111fb565b91505092915050565b60006020828403121561128157611280610dea565b5b600082013567ffffffffffffffff81111561129f5761129e610def565b5b6112ab8482850161123d565b91505092915050565b7f4e487b7100000000000000000000000000000000000000000000000000000000600052602260045260246000fd5b600060028204905060018216806112fb57607f821691505b60208210810361130e5761130d6112b4565b5b50919050565b7f6f776e657220696e646578206973206f7574206f662072616e67650000000000600082015250565b600061134a601b83610eba565b915061135582611314565b602082019050919050565b600060208201905081810360008301526113798161133d565b9050919050565b7f4e487b7100000000000000000000000000000000000000000000000000000000600052603260045260246000fd5b7f676c6f62616c20696e646578206973206f7574206f662072616e676500000000600082015250565b60006113e5601c83610eba565b91506113f0826113af565b602082019050919050565b60006020820190508181036000830152611414816113d8565b9050919050565b7f6f776e657220717565727920666f72206e6f6e2d6578697374656e7420000000600082015250565b6000611451601d83610eba565b915061145c8261141b565b602082019050919050565b6000602082019050818103600083015261148081611444565b9050919050565b600081905092915050565b600061149d82610eaf565b6114a78185611487565b93506114b7818560208601610ecb565b80840191505092915050565b60006114cf8284611492565b915081905092915050565b7f4572726f72202d206b727970746f626972642065786973747320616c7265616460008201527f7900000000000000000000000000000000000000000000000000000000000000602082015250565b6000611536602183610eba565b9150611541826114da565b604082019050919050565b6000602082019050818103600083015261156581611529565b9050919050565b60008190508160005260206000209050919050565b60006020601f8301049050919050565b600082821b905092915050565b6000600883026115ce7fffffffffffffffffffffffffffffffffffffffffffffffffffffffffffffffff82611591565b6115d88683611591565b95508019841693508086168417925050509392505050565b6000819050919050565b600061161561161061160b84610f61565b6115f0565b610f61565b9050919050565b6000819050919050565b61162f836115fa565b61164361163b8261161c565b84845461159e565b825550505050565b600090565b61165861164b565b611663818484611626565b505050565b5b818110156116875761167c600082611650565b600181019050611669565b5050565b601f8211156116cc5761169d8161156c565b6116a684611581565b810160208510156116b5578190505b6116c96116c185611581565b830182611668565b50505b505050565b600082821c905092915050565b60006116ef600019846008026116d1565b1980831691505092915050565b600061170883836116de565b9150826002028217905092915050565b61172182610eaf565b67ffffffffffffffff81111561173a57611739611140565b5b61174482546112e3565b61174f82828561168b565b600060209050601f8311600181146117825760008415611770578287015190505b61177a85826116fc565b8655506117e2565b601f1984166117908661156c565b60005b828110156117b857848901518255600182019150602085019450602081019050611793565b868310156117d557848901516117d1601f8916826116de565b8355505b6001600288020188555050505b505050505050565b7f4e487b7100000000000000000000000000000000000000000000000000000000600052601160045260246000fd5b600061182482610f61565b915061182f83610f61565b9250828203905081811115611847576118466117ea565b5b92915050565b7f4572726f72202d207472616e7366657220746f207a65726f2061646472657373600082015250565b6000611883602083610eba565b915061188e8261184d565b602082019050919050565b600060208201905081810360008301526118b281611876565b9050919050565b7f547279696e6720746f207472616e73666572206120746f6b656e20746865206160008201527f64647265737320646f6573206e6f74206f776e00000000000000000000000000602082015250565b6000611915603383610eba565b9150611920826118b9565b604082019050919050565b6000602082019050818103600083015261194481611908565b9050919050565b600061195682610f61565b915061196183610f61565b9250828201905080821115611979576119786117ea565b5b92915050565b7f4552433732313a206d696e74696e6720746f20746865207a65726f206164647260008201527f6573730000000000000000000000000000000000000000000000000000000000602082015250565b60006119db602383610eba565b91506119e68261197f565b604082019050919050565b60006020820190508181036000830152611a0a816119ce565b9050919050565b7f4552433732313a20746f6b656e20616c72656164792065786973747300000000600082015250565b6000611a47601c83610eba565b9150611a5282611a11565b602082019050919050565b60006020820190508181036000830152611a7681611a3a565b905091905056fea2646970667358221220c63b01176d859d85e1141fe3c6c981e43574c5d41b4654b7d92c94fcb432f94564736f6c63430008130033",
  "immutableReferences": {},
  "source": "// SPDX-License-Identifier: MIT\npragma solidity ^0.8.0;\n\nimport './ERC721Connector.sol';\n\ncontract KryptoBird is ERC721Connector{\n\n    string [] public kryptoBirdz;\n\n    mapping(string => bool) _kryptoBirdzExists;\n\n    function mint(string memory _kryptoBird) public {\n\n        require(!_kryptoBirdzExists[_kryptoBird],'Error - kryptobird exists already');\n        kryptoBirdz.push(_kryptoBird);\n        uint _id = kryptoBirdz.length -1;\n\n        _mint(msg.sender, _id);\n\n        _kryptoBirdzExists[_kryptoBird] = true;\n    }\n\n    constructor () ERC721Connector('KryptoBird','KBIRDZ') {\n         \n    }\n\n} ",
  "sourcePath": "/Users/snp/web/nft-marketplace-starter-kit/src/contracts/KryptoBirdz.sol",
  "compiler": {
    "name": "solc",
    "version": "0.8.19+commit.7dd6d404.Emscripten.clang"
  },
  "schemaVersion": "3.4.13",
  "updatedAt": "2023-04-13T02:17:54.758Z",
  "devdoc": {
    "events": {
      "Approval(address,address,uint256)": {
        "details": "This emits when the approved address for an NFT is changed or  reaffirmed. The zero address indicates there is no approved address.  When a Transfer event emits, this also indicates that the approved  address for that NFT (if any) is reset to none."
      },
      "Transfer(address,address,uint256)": {
        "details": "This emits when ownership of any NFT changes by any mechanism.  This event emits when NFTs are created (`from` == 0) and destroyed  (`to` == 0). Exception: during contract creation, any number of NFTs  may be created and assigned without emitting Transfer. At the time of  any transfer, the approved address for that NFT (if any) is reset to none."
      }
    },
    "kind": "dev",
    "methods": {},
    "version": 1
  },
  "userdoc": {
    "kind": "user",
    "methods": {},
    "version": 1
  }
}